:100000000C944F000C946C000C946C000C946C00DD
:100010000C946C000C946C000C946C000C946C00B0
:100020000C946C000C946C000C946C000C946C00A0
:100030000C946C000C946C000C94E9000C946C0013
:100040000C946C000C9497000C946C000C946C0055
:100050000C9423010C946C000C946C000C946C00B8
:100060000C946C000C946C000C946C000C946C0060
:100070000C946C000C946C000C946C002D083F08E0
:10008000490865089E08D708EC084209600B600B18
:10009000BB09600B020A380A5D0ABB0A450B112432
:1000A0001FBECFEFD0E1DEBFCDBF11E0A0E0B1E0D9
:1000B000EAEEF7E102C005900D92A633B107D9F739
:1000C00028E0A6E3B1E001C01D92A835B207E1F730
:1000D0000E9435070C94F30B0C94000046E851EE97
:1000E00060E081E00E94200285E50E949D0610925A
:1000F000380110923A0110923901809148018093A1
:10010000370146E851EE65E081E00C942002109240
:100110003A01109239011092380178940895F894B8
:1001200010923A01109239011092380108951F92ED
:100130000F920FB60F921124EF92FF920F932F930D
:100140003F934F935F936F937F938F939F93AF935F
:10015000BF93EF93FF9340E050E060E080E00E94A7
:100160002002809151078B30E8F08BE4E82E83E089
:10017000F82E01E220E043E462E189E495E00E9488
:10018000E20689E495E00E946F02109253071092F4