:100000000C9452000C9464000C9464000C946400F2
:100010000C9464000C9464000C9464000C948300B1
:100020000C9464000C9464000C9464000C946400C0
:100030000C9464000C9464000C94D6000C9464003E
:100040000C9464000C948D000C9464000C94640077
:100050000C9410010C9464000C9464000C946400E3
:100060000C9464000C9464000C9464000C94640080
:100070000C9464000C9464000C9464002A0A2F0A07
:100080003B0A3B0AA10AA10AA10AA10AA10AA10AE4
:10009000A10AA10A490A550AA10A630A730A830A36
:1000A0008D0A970A11241FBECFEFD0E1DEBFCDBF6E
:1000B00024E0A0E0B1E001C01D92AF30B207E1F74B
:1000C0000E9464090C940B0B0C940000CF93DF93F7
:1000D000EC0146E851EE60E081E00E94D80185E540
:1000E0000E94040410920201109204011092030174
:1000F0008D858093010146E851EE65E081E0DF9156
:10010000CF910C94D8011F920F920FB60F92112429
:100110000F900FBE0F901F9018951F920F920FB661
:100120000F9211242F933F934F935F936F937F937D
:100130008F939F93AF93BF93EF93FF9340E050E073
:1001400060E080E00E94D80185E50E94040480916F
:100150000C0491E0980F90930C049B3098F020E0F1
:1001600030E041E260E084E092E00E94FD0584E03E
:1001700092E00E94140210920D0410920E0410924C
:100180000C0403C08E5F80930C04FF91EF91BF912C
:10019000AF919F918F917F916F915F914F913F911F
:1001A0002F910F900FBE0F901F9018951F920F92D6
:1001B0000FB60F9211242F933F934F935F936F933A
:1001C0007F938F939F93AF93BF93EF93FF9346E8F3
:1001D00051EE60E081E00E94D801809100018A3AEE
:1001E00019F41092020105C0809102018F5F809383
:1001F000020146E851EE65E081E00E94D801FF91DE
:10020000EF91BF91AF919F918F917F916F915F918E
:100210004F913F912F910F900FBE0F901F90189507
:100220001F920F920FB60F9211240F932F933F93AB
:100230004F935F936F937F938F939F93AF93BF93EE
:10024000EF93FF9380910E0481116AC085E50E94AF
:1002500004048091D20040910D04413091F040F0AF
:100260004230B9F04330C9F480930B0384E00EC0F0
:10027000823121F48093080381E008C010920D04BC
:1002800051C08433D9F78093090382E080930D0431
:1002900049C080930A0383E0F9CF642F70E0209176
:1002A0000A0330E0F90134966E177F0759F5809301
:1002B0000B0410920D0450E060E070E000E020E0DC
:1002C00030E088E093E00E947E05809305019091E4
:1002D0000B04891304C08FEF80930E0423C0909306
:1002E000060180910A038093070125E031E04EE288
:1002F00063E084E092E00E94FD0584E092E00E94C9
:10030000140210C02D5F3F4F261737070CF4B6CFED
:10031000FB01E85FFC4F80834F5F40930D0402C0F8
:100320008091D200FF91EF91BF91AF919F918F91FA
:100330007F916F915F914F913F912F910F910F900E
:100340000FBE0F901F9018955F9A08955F980895BB
:100350002098219A229A229A239A249A259A269AB8
:10036000279A3898399A3A9A3B983C9A3D9A3E9AFD
:100370003F9A509A519A5298549855985698579A2D
:10038000853581F029982A9A2B9A2C982D982E98A9
:100390002F9839983A9A3C9A3D9A3E983F985098AF
:1003A000519A579882E08093690081E08DBB08954F
:1003B0006770811108C015BC14BC46BD65BD81E0E5
:1003C00080936E00089510928100109280005093E7
:1003D0008500409384006093810081E080936F00EA
:1003E0000895E8ECF0E097E09083ACECB0E090E8A2
:1003F0009C93539A54989C9193629C9323E030E091
:100400003093CE002093CD0083708093CA0080810A
:10041000886080830895579A509A85B78F7785BFF3
:100420001DBC8DE58CBD0895FC01DC0112962C915C
:1004300030E02C5F3F4FAF01481B590B4217530769
:1004400048F421912093D2002091C90026952130B3
:10045000D9F7EBCFFC01ED5FFE4F80818093D20096
:100460008091C90086958130D9F70895853511F4BA
:100470000C94A4018A3A09F4589A0895853511F428
:100480000C94A6018A3A09F4589808958EBD0DB4CB
:1004900007FEFDCF8EB50895CF93DF930E940B0228
:1004A0000E94A4018AEA0E94360286E00E94460267
:1004B0000E94A6018AEA0E943E020E94A4018AEAE2
:1004C0000E94360281E00E94460280E00E944602BD
:1004D0000E94A6018AEA0E943E020E94A4018AEAC2
:1004E0000E94360286E00E9446020E94A6018AEA25
:1004F0000E943E020E94A40185E00E94460280E024
:100500000E944602D82F0E94A601C1E0D1FDC0E0A2
:100510008AEA0E94360285E00E94460280E00E943C
:100520004602D82F8AEA0E943E02D1FFCE5F8C2F6E
:10053000DF91CF910895FF920F931F93CF93DF9395
:10054000162F072FF82EEA010E940B028B89809547
:100550000E943E028B890E94360283E00E9446027E
:100560008F2D8F770E944602802F0E944602812F96
:100570000E94460280E00E944602182F8B890E944A
:100580003E02812FDF91CF911F910F91FF9008952F
:100590000F931F93CF93DF93D62F172F082FC42FBE
:1005A0000E94A4018AEA0E94360286E00E94460266
:1005B0000E94A6018AEA0E943E020E94A4018AEAE1
:1005C0000E94360282E00E944602802F8F770E94AE
:1005D0004602812F0E9446028D2F0E9446028C2FD8
:1005E0000E9446020E94A6018AEADF91CF911F91E4
:1005F0000F910C943E02CF92DF92EF92FF92CF9335
:100600006B017C01C42F0E94C802C701B60103968A
:100610004C2F0E94C802C701B60106964C2FCF91FD
:10062000FF90EF90DF90CF900C94C802EF92FF9272
:100630000F93F701421305C040834017A1F00696BF
:1006400009C0401303C04083039604C0201306C0B2
:100650002083422F0E94C80281E006C04FEF0E9413
:10066000FB0280E101C080E00F91FF90EF900895C0
:10067000249A259A269A3F9A229A3D9A811102C07D
:100680002C9803C0813021F42C9A2D982E981BC0F1
:10069000823011F42C9803C0833019F42C9A2D9ACF
:1006A000F5CF843011F42C9803C0853019F42C9ABE
:1006B0002D9808C0863011F42C9803C0873019F4A7
:1006C0002C9A2D9A2E9A611102C047980895613094
:1006D00009F4479A0895680F791F8617970721F044
:1006E000FC014193CF01F9CF0895AF92BF92CF9211
:1006F000DF92EF92FF920F931F93CF93DF93CDB7CB
:10070000DEB7C054D1090FB6F894DEBF0FBECDBF1F
:100710005C0140E060E470E0CE0101967C010E9443
:100720006B03F501D080018182819D2D900F980F80
:100730002381920FD5011496F701CE2C3E2F3E193E
:100740003D1520F43D913193930FF8CFF501ED0D58
:10075000F11D3481930FE1F4222311F080E019C0E0
:1007600010E0102F0027080F111D0E191F0901504E
:100770001E478E2D8C198D1588F7F70141917F0149
:10078000B8016E0F7F1F80E090E00E94FB02F1CF66
:1007900082E0C05CDF4F0FB6F894DEBF0FBECDBF66
:1007A000DF91CF911F910F91FF90EF90DF90CF904D
:1007B000BF90AF900895CF93DF9300D000D0CDB716
:1007C000DEB719821A821B821C8269837A838B832B
:1007D0009C8389819A81AB81BC810397A105B10576
:1007E00060F089819A81AB81BC810197A109B1092F
:1007F00089839A83AB83BC83ECCF0F900F900F90CB
:100800000F90DF91CF9108958A3A09F4FFCF399A7A
:10081000419A65EE70E080E090E00E94DB03419831
:100820000895CF93C82F811102C02A9A03C0813046
:1008300009F4459A69EC71E080E090E00E94DB03E6
:10084000C11102C02A9803C0C13009F4459869EC6F
:1008500071E080E090E00E94DB03C11102C02A9A9F
:1008600003C0C13009F4459ACF910895CF93C42FA6
:100870000E9438038C2FCF910C94110445E561E060
:1008800070E080E090E00E94FB02FFCFCF93DF9307
:10089000EC0140E061E084E00E9436040E944C02DA
:1008A0008C8B8330B9F440E060E084E00E94360431
:1008B00060E079E280E090E00E94DB0340E061E0EC
:1008C00084E00E9436040E944C028C8B833041F4F9
:1008D0000E943E04813011F48AEA01C085E58B8BC9
:1008E00060E079E280E090E0DF91CF910C94DB034F
:1008F0006F927F928F929F92AF92BF92CF92DF9230
:10090000EF92FF920F931F93CF93DF934B015C0104
:100910006A01E901A9010E949B02182FC501B401D7
:100920000396AE010E949B02782EC501B401069683
:10093000AE010E949B027601082F272D412FC50191
:10094000B4010E941603803179F48B89853551F406
:100950008AEA8B8B272D412FC501B4010E94160313
:10096000803139F40E943E04882319F08D898F5F0D
:100970008D8BDF91CF911F910F91FF90EF90DF90C2
:10098000CF90BF90AF909F908F907F906F90089581
:10099000CF93DF93EC019C01AC0160E070E0CB01F0
:1009A0000E947804AE014F5F5F4F9E0161E070E0EE
:1009B00080E090E00E947804AE014E5F5F4F9E01A0
:1009C00062E070E080E090E00E947804AE014D5F4C
:1009D0005F4F9E0163E070E080E090E00E94780449
:1009E000AE014C5F5F4F9E0164E070E080E090E0FC
:1009F0000E947804AE014B5F5F4F9E0165E070E09E
:100A000080E090E00E947804AE014A5F5F4F9E0153
:100A100066E070E080E090E00E947804AE01495FFB
:100A20005F4F9E0167E070E080E090E00E947804F4
:100A3000AE01485F5F4F9E0168E070E080E090E0AB
:100A40000E947804AE01475F5F4F9E0169E070E04D
:100A500080E090E00E947804AE01465F5F4F9E0107
:100A60006AE070E080E090E00E947804AE01455FAB
:100A70005F4F9E016BE070E080E090E00E947804A0
:100A8000AE01445F5F4F9E016CE070E080E090E05B
:100A90000E947804AE01435F5F4F9E016DE070E0FD
:100AA00080E090E00E947804AE01425F5F4F9E01BB
:100AB0006EE070E080E090E00E947804AE01415F5B
:100AC0005F4F9E016FE070E080E090E00E9478044C
:100AD000AE01405F5F4F9E0160E170E080E090E01A
:100AE0000E947804AE014F5E5F4F9E0161E170E0AD
:100AF00080E090E0DF91CF910C9478043F924F9288
:100B00005F926F927F928F929F92AF92BF92CF929D
:100B1000DF92EF92FF920F931F93CF93DF931F9279
:100B2000CDB7DEB72A013B01490119825C01C12C16
:100B3000D12C760110E085ED382EC414D504E604DE
:100B4000F70409F446C0011103C0F501808105C016
:100B5000053529F4F601C895802D898319C00A3A14
:100B600051F49401AE014F5F5F4FC701B6017E574C
:100B70008F4F9F4F0BC00F3F59F49401AE014F5F51
:100B80005F4FC701B6017E5F8F4F9F4F0E94780471
:100B9000D701C6018F779927AA27BB27892B8A2BD4
:100BA0008B2B19F485E50E940404898198E0282F95
:100BB0002127110F27FD1325880F9150C1F7898335
:100BC000FFEFCF1ADF0AEF0AFF0A8FEFA81AB80A61
:100BD000B4CF812F0F90DF91CF911F910F91FF9094
:100BE000EF90DF90CF90BF90AF909F908F907F90CD
:100BF0006F905F904F903F9008950F93CF93DF9346
:100C0000EC0182E1888383E489836A834B83922F9A
:100C1000DE011496F9018E2F891B861718F4819135
:100C20008D93F9CF462F50E04C5F5F4F052E000C9F
:100C3000660B770B00E020E030E0CE010E947E05DD
:100C4000CD5FDE4F888380E0DF91CF910F910895D3
:100C50000F931F93CF93DF931F92CDB7DEB78C0115
:100C600019829C01AE014F5F5F4F6FE070E080E042
:100C700090E00E94780489818336A9F0F801838985
:100C8000853579F48AEA838B9801AE014F5F5F4F17
:100C90006FE070E080E090E00E9478048981833604
:100CA00011F00E943E040F90DF91CF911F910F91A0
:100CB000089585B7982F916095BF826085BF0C9489
:100CC00000700895FB0150E09F01261B370B24178D
:100CD000350728F42191DC012D93CD01F5CF08953E
:100CE000853531F485B7982F916095BF826005C036
:100CF00085B7982F916095BF8D7F85BF0895FC01C2
:100D0000C895802D0895F894089578940895FC016D
:100D10008789853539F44FEF69E070E080E090E035
:100D20000E94FB028AEA0C940404CF93DF93FB0138
:100D30002789253561F4EC0120E030E041E060E0F6
:100D40000E94FD05CE01DF91CF910C941402DF913A
:100D5000CF910895CF93DF93FC01DA0113968C9124
:100D6000139780831D968C911D9781831E968C917D
:100D70001E97828357968C91853561F4EB019F0114
:100D800042E063E0CE010E94FD05CE01DF91CF91EC
:100D90000C941402DF91CF910895EF92FF920F937C
:100DA0001F93CF93DF93EC017B018901FA018481CA
:100DB0008883F90183818983FA0184818535A9F4C7
:100DC000F901838345E563E070E080E090E00E94F4
:100DD000FB029801AE014E5F5F4F63E070E080E080
:100DE00090E00E94780443E003C08FEF8A8343E8D9
:100DF000F8018789853571F49E0163E0C7010E947F
:100E0000FD05C701DF91CF911F910F91FF90EF90EA
:100E10000C941402DF91CF911F910F91FF90EF90EE
:100E20000895CF92DF92EF92FF920F931F93CF938B
:100E3000DF93EC018B0185E50E940404C12C82E85C
:100E4000D82EE12CF12C4FEFC701B6010E94FB0216
:100E5000D701C6018F779927AA27BB27892B8A2B11
:100E60008B2B19F485E50E9404048FEFC81AD80A69
:100E7000E80AF80AC114E2ECDE06E104F10419F70D
:100E8000F8018789853591F420E030E04CE060E09E
:100E9000CE010E94FD05CE01DF91CF911F910F91F0
:100EA000FF90EF90DF90CF900C941402DF91CF91E0
:100EB0001F910F91FF90EF90DF90CF900895CF9208
:100EC000DF92EF92FF920F931F93CF93DF93CDB7F3
:100ED000DEB7C058D1090FB6F894DEBF0FBECDBF44
:100EE0008C016B017A0140E060E870E0CE01019670
:100EF0000E946B0385E50E940404B6016C5F7F4F7E
:100F0000F6014281CE0101960E946206B701CE0130
:100F100001960E9475034FEF60E170E080E090E081
:100F20000E94FB02F7018789853551F420E030E00B
:100F30004DE060E0C8010E94FD05C8010E94140256
:100F4000C058DF4F0FB6F894DEBF0FBECDBFDF91A4
:100F5000CF911F910F91FF90EF90DF90CF90089568
:100F6000CF92DF92EF92FF920F931F93CF93DF9375
:100F7000EC016B017901FA01148118830AEA40E05F
:100F800050E460E070E080E090E00E947E0589839C
:100F9000181302C0412F01C04FEF60E170E080E004
:100FA00090E00E94FB029701AE014E5F5F4F60E14F
:100FB00070E080E090E00E947804F7018789853531
:100FC00089F49E014FE063E0C6010E94FD05C60161
:100FD000DF91CF911F910F91FF90EF90DF90CF9015
:100FE0000C941402DF91CF911F910F91FF90EF901D
:100FF000DF90CF900895EF92FF920F931F93CF93BE
:10100000DF938C01EB01790143E661E070E080E061
:1010100090E00E94FB029701A80161E070E080E08F
:1010200090E00E947804F7018789853579F498016A
:1010300040E161E0CE010E94FD05CE01DF91CF913C
:101040001F910F91FF90EF900C941402DF91CF91BC
:101050001F910F91FF90EF9008958F929F92AF9202
:10106000BF92CF92DF92EF92FF920F931F93CF9395
:101070007C018B016A01812C82E0982EA12CB12C7D
:10108000C0E0A7014C0F511D9601C501B4010E949B
:101090007804CF5FC03171F4F601808D853549F455
:1010A000970141E160E1C8010E94FD05C8010E946D
:1010B0001402C0E0FFEF8F1A9F0AAF0ABF0A811423
:1010C00082E49806A104B104E1F6F601808D85352D
:1010D000A1F4970141E160E1C8010E94FD05C8014A
:1010E000CF911F910F91FF90EF90DF90CF90BF9025
:1010F000AF909F908F900C941402CF911F910F91FD
:10110000FF90EF90DF90CF90BF90AF909F908F9027
:1011100008958F929F92AF92BF92CF92DF92EF92FB
:10112000FF920F931F93CF937C018B016A01812C57
:1011300082E8982EA12CB12CC0E0A7014C0F511DC4
:101140009601C501B4010E947804CF5FC03171F4EB
:10115000F601808D853549F4970141E160E1C801D0
:101160000E94FD05C8010E941402C0E0FFEF8F1A23
:101170009F0AAF0ABF0A811482EC9806A104B10449
:10118000E1F6F601808D8535A1F4970142E160E139
:10119000C8010E94FD05C801CF911F910F91FF90DA
:1011A000EF90DF90CF90BF90AF909F908F900C9476
:1011B0001402CF911F910F91FF90EF90DF90CF908D
:1011C000BF90AF909F908F9008958F929F92AF9213
:1011D000BF92CF92DF92EF92FF920F931F93CF9324
:1011E0006C018B015A01E12CF12CC0E046018C0E00
:1011F000911CC7010E947F06F4018083CF5FC0313C
:1012000071F4F501808D853549F4960141E160E185
:10121000C8010E94FD05C8010E941402C0E0FFEF52
:10122000EF1AFF0A8FEFE8168FEDF806F9F6F501D1
:10123000808D8535A1F4960142E160E1C8010E94EC
:10124000FD05C801CF911F910F91FF90EF90DF90A6
:10125000CF90BF90AF909F908F900C941402CF913D
:101260001F910F91FF90EF90DF90CF90BF90AF90C4
:101270009F908F900895EF92FF920F931F93CF93BB
:10128000DF938C01EB017A0185E50E9404048B81D8
:10129000F8018083F7018789853579F498014FE259
:1012A00061E0CE010E94FD05CE01DF91CF911F913B
:1012B0000F91FF90EF900C941402DF91CF911F914A
:1012C0000F91FF90EF900895CF93DF93CDB7DEB7E6
:1012D0006A970FB6F894DEBF0FBECDBF0E9483069B
:1012E00010920401109203011092020110920E0458
:1012F00010920D0410920C04109201011092000142
:1013000040E064E071E088E093E00E946B0340E01D
:1013100064E071E084E092E00E946B0340E06FEFD4
:1013200070E085E091E00E946B0340E06AE170E0CC
:10133000CE0101960E946B0385E58C8B8AEA0E94A0
:10134000A8010E940B0281E00E94F1018AEA0E943A
:101350007006CE0101960E944604CE0101960E94BD
:101360002806CE0101960E94C80486B181708B8B3D
:101370008981853571F045E560E070E0CB010E9420
:10138000FB0240E066E070E080E090E00E94FB023B
:101390001F828D85803349F040E36CE070E080E08F
:1013A00090E00E94FB0280E38D878E85809301018F
:1013B0008C81809300018A858535A1F44AE1BE01C4
:1013C0006F5F7F4F85E091E00E94620625E031E08B
:1013D00040E06AE184E092E00E94FD0584E092E052
:1013E0000E94140240E069E070E080E090E00E941A
:1013F000FB021092040110920301109202010E945C
:10140000850646E851EE65E081E00E94D80100E0E3
:101410001AEA85E50E94A80185E50E9404048091EE
:101420000E048F3F09F09AC080910B03E82FEF77ED
:10143000EF8B87FF03C085E5888F01C0188F8E2F43
:1014400090E08431910508F07CC0FC01E25CFF4F24
:101450000C94050BCE0101960E9487067FC0CE0139
:1014600001960E946600BE016F5F7F4F84E092E0AC
:101470000E94950673C0CE0101960E946600AE01DF
:101480004F5F5F4F64E072E085E091E00E94AA0642
:1014900065C0CE0101960E946600BE016F5F7F4F5E
:1014A00088E093E00E94110759C0CE0101960E9486
:1014B0006600AE014F5F5F4F68E073E084E092E04A
:1014C0000E945F074BC0CE0101960E9466009E01FC
:1014D0002F5F3F4F48E053E064E072E085E091E029
:1014E0000E94B0073BC0CE0101960E9466009E019B
:1014F0002F5F3F4F48E053E064E072E085E091E009
:101500000E94FB072BC0AE014F5F5F4F64E072E0AB
:1015100085E091E00E942D0821C0AE014F5F5F4F32
:1015200064E072E085E091E00E94890817C0AE0196
:101530004F5F5F4F64E072E085E091E00E94E50854
:101540000DC0CE0101960E946600AE014F5F5F4F55
:1015500068E073E085E091E00E943B0910920E0480
:101560009091020180910101891738F410920201D3
:10157000809104018F5F8093040180910401909118
:1015800003019817E1F010920201809303018A8F02
:101590009F85909301018093050125E031E040E2B1
:1015A00061E084E092E00E94FD0584E092E00E9408
:1015B000140280910401803210F00E94590601113A
:1015C00028CF8A818C3379F04CE361E070E080E0D1
:1015D00090E00E94FB024E814F5F65E070E080E08A
:1015E00090E00E94FB024F814F5F66E070E080E078
:1015F00090E00E94FB0248854F5F67E070E080E06A
:1016000090E00E94FB020AEA04CFEE0FFF1F059054
:0A161000F491E02D0994F894FFCF47
:00000001FF
