:100000000C944F000C946C000C946C000C946C00DD
:100010000C946C000C946C000C946C000C946C00B0
:100020000C946C000C946C000C946C000C946C00A0
:100030000C946C000C946C000C94E9000C946C0013
:100040000C946C000C9497000C946C000C946C0055
:100050000C9423010C946C000C946C000C946C00B8
:100060000C946C000C946C000C946C000C946C0060
:100070000C946C000C946C000C946C009B08AD0804
:10008000B708D3080C0945095A09B009D60BD60B95
:10009000290AD60B700AAB0AD30A310BBB0B112409
:1000A0001FBECFEFD0E1DEBFCDBF11E0A0E0B1E0D9
:1000B000E6EDF8E102C005900D92A633B107D9F73D
:1000C00028E0A6E3B1E001C01D92A835B207E1F730
:1000D0000E94A3070C94690C0C94000046E851EEB2
:1000E00060E081E00E94200285E50E94B406109243
:1000F000380110923A0110923901809148018093A1
:10010000370146E851EE65E081E00C942002109240
:100110003A01109239011092380178940895F894B8
:1001200010923A01109239011092380108951F92ED
:100130000F920FB60F921124EF92FF920F932F930D
:100140003F934F935F936F937F938F939F93AF935F
:10015000BF93EF93FF9340E050E060E080E00E94A7
:100160002002809151078B30E8F08BE4E82E83E089
:10017000F82E01E220E043E462E189E495E00E9488
:10018000F90689E495E00E946F02109253071092DD
:10019000520710925407109255071092560710926A
:1001A000510703C08F5F80935107FF91EF91BF917B
:1001B000AF919F918F917F916F915F914F913F91FF
:1001C0002F910F91FF90EF900F900FBE0F901F9007
:1001D00018951F920F920FB60F9211242F933F93F1
:1001E0004F935F936F937F938F939F93AF93BF933F
:1001F000EF93FF9346E851EE60E081E00E94200219
:1002000080913E018A3A19F41092380105C080911C
:1002100038018F5F8093380146E851EE65E081E058
:100220000E942002FF91EF91BF91AF919F918F911A
:100230007F916F915F914F913F912F910F900FBEE2
:100240000F901F9018951F920F920FB60F921124C6
:10025000EF92FF920F932F933F934F935F936F9380
:100260007F938F939F93AF93BF93EF93FF9385E516
:100270000E94B40690915307292F30E08091D2005C
:10028000F901EC5AF84F80839130B9F040F0923088
:1002900019F1933039F58093500684E020C0823103
:1002A00049F480934D0681E08093530740E050E08D
:1002B00065E00EC0109253075AC0843321F4809336
:1002C0004E0682E00CC01092530740E050E060E020
:1002D00080E00E9420024BC080934F0683E0809311
:1002E000530745C040914F0650E0BA016C5F7F4F05
:1002F0002617370779F5809350071092530740E08F
:1003000050E060E080E00E9420028DE496E00E94D0
:10031000C10690915007891304C08FEF8093520754
:1003200026C080934B0390934C0380914F0680939B
:100330004D038BE4E82E83E0F82E0EE223E043E445
:1003400062E189E495E00E94F90689E495E00E9463
:100350006F020DC04D5F5F4F421753070CF4AACFD9
:10036000F901E35BF94F80839F5F90935307FF91FF
:10037000EF91BF91AF919F918F917F916F915F911D
:100380004F913F912F910F91FF90EF900F900FBEE3
:100390000F901F90189585B7982F916095BF8D7F0E
:1003A00085BF109253071092520710925107109276
:1003B0003A01109239011092380110923701309BA6
:1003C00003C01092360103C081E0809336014FEFE5
:1003D00060E170E08BE391E00C9475065F9A0895FC
:1003E0005F9808952098219A229A229A239A249A13
:1003F000259A269A279A3898399A3A9A3B983C9A9D
:100400003D9A3E9A3F9A509A519A529854985598CC
:100410005698579A29982A9A2B9A2C982D982E9864
:100420002F9839983A9A3C9A3D9A3E983F9850981E
:10043000519A579882E08093690081E08DBB0895BE
:100440006770811108C015BC14BC46BD65BD81E054
:1004500080936E0008951092810010928000509356
:100460008500409384006093810081E080936F0059
:100470000895E8ECF0E097E09083ACECB0E090E811
:100480009C93539A54989C9193629C9323E030E000
:100490003093CE002093CD008093CA008081886085
:1004A00080830895399A419A41980895680F791F79
:1004B0008617970759F0FC012191CF012093D200B4
:1004C0002091C90026952130D9F7F2CF0895809365
:1004D000D2008091C90086958130D9F70895FC013A
:1004E000DC0112962C9130E02C5F3F4FAF01481B8E
:1004F000590B4217530748F421912093D2002091C1
:10050000C90026952130D9F7EBCFFC01ED5FFE4FF6
:1005100080818093D2008091C90086958130D9F77F
:100520000895F899FECF089507B600FCFDCF089511
:100530008153863330F4E82FF0E0E050FF4F8081A4
:10054000089580E00895579A509A85B78F7785BFB0
:100550001DBC8DE58CBD0895853511F40C94EE011C
:100560008A3A09F4589A0895853511F40C94F001EB
:100570008A3A09F458980895CF93DF931F92CDB724
:10058000DEB79FEF99838EBD0DB407FC07C089814C
:10059000833020F0898181508983F6CF8EB50F900A
:1005A000DF91CF910895CF93DF930E94A3020E9421
:1005B000EE018AEA0E94AC0286E00E94BC020E9420
:1005C000F0018AEA0E94B4020E94EE018AEA0E94C7
:1005D000AC0281E00E94BC0280E00E94BC020E944A
:1005E000F0018AEA0E94B4020E94EE018AEA0E94A7
:1005F000AC0286E00E94BC020E94F0018AEA0E94DE
:10060000B4020E94EE0185E00E94BC0280E00E94DC
:10061000BC02D82F0E94F001C1E0D1FDC0E08AEAFF
:100620000E94AC0285E00E94BC0280E00E94BC02F5
:10063000D82F8AEA0E94B402D1FFCE5F8C2FDF91BF
:10064000CF9108958F929F92AF92BF92CF92DF92F7
:10065000EF92FF920F931F93CF93DF936B017C0177
:10066000D42FC22F132F0E94EE018AEA0E94AC02FF
:1006700086E00E94BC020E94F0018AEA0E94B40255
:100680000E94EE018AEA0E94AC0282E00E94BC0253
:100690008E2D8F770E94BC028D2D0E94BC028C2D66
:1006A0000E94BC02023068F09C2EAC2EB12EF501E7
:1006B00081915F010E94BC028A2D89198017B8F3CD
:1006C00003C08D2F0E94BC020E94F0018AEA0E94A2
:1006D000B4020E94EE018AEA0E94AC0286E00E9407
:1006E000BC020E94F0018AEA0E94B4020E94EE015C
:1006F0008AEA0E94AC0282E00E94BC0246015701D5
:10070000F3E0AF0EB11C8A2D8F770E94BC02892DB9
:100710000E94BC028C2D0E94BC02023068F09C2E0C
:10072000AC2EB12EF50181915F010E94BC028A2D91
:1007300089198017B8F303C08D2F0E94BC020E9454
:10074000F0018AEA0E94B4020E94EE018AEA0E9445
:10075000AC0286E00E94BC020E94F0018AEA0E947C
:10076000B4020E94EE018AEA0E94AC0282E00E947A
:10077000BC0246015701F6E0AF0EB11C8A2D8F77FF
:100780000E94BC02892D0E94BC028C2D0E94BC02DA
:10079000023068F0DC2FEC2EF12EF70181917F0101
:1007A0000E94BC028E2D8D1B8017B8F303C08D2FC5
:1007B0000E94BC020E94F0018AEADF91CF911F9152
:1007C0000F91FF90EF90DF90CF90BF90AF909F90F0
:1007D0008F900C94B4020F931F93CF93DF93D62F77
:1007E000172F082FC42F842F80950E94B4028C2FBE
:1007F0000E94AC0283E00E94BC02802F8F770E948F
:10080000BC02812F0E94BC028D2F0E94BC0280E09E
:100810000E94BC02D82F8C2F0E94B4028D2FDF9132
:10082000CF911F910F9108953F924F925F926F92D7
:100830007F928F929F92AF92BF92CF92DF92EF9270
:10084000FF920F931F93CF93DF936B017C018A017B
:10085000322E0E94A302432DC701B6010E94EB0372
:10086000C82F4601570183E0A80EB11C432DC501D6
:10087000B4010E94EB03D82F26013701E6E06E0E8B
:10088000711C432DC301B2010E94EB03CD130BC0B9
:10089000F801C083C81701F101E020E030E04C2FDF
:1008A000C301B20115C0C81309C0F801C08301E03B
:1008B00020E030E04C2FC501B4010AC0D8130EC0AF
:1008C000F801D08301E020E030E04D2FC701B601F0
:1008D0000E94220381E003C080E001C080E1DF913B
:1008E000CF911F910F91FF90EF90DF90CF90BF902D
:1008F000AF909F908F907F906F905F904F903F90C0
:100900000895CF92DF92EF92FF920F931F93CF93B0
:10091000DF931F92CDB7DEB76B017A011982F80120
:1009200080830E94D302811104C085E5F801808391
:100930000DC0813011F48AEA03C0823031F485E5BC
:10094000F8018083F601808101C0FFCFF80120818A
:10095000AE014F5F5F4F6FE070E080E090E00E947B
:1009600014048031E1F4F80180818535B9F48AEA14
:1009700080832AEAAE014F5F5F4F6FE070E080E056
:1009800090E00E941404803109F4FFCF813039F4E3
:10099000F7018081C70101967C0101C0FFCF8981E9
:1009A0008336E9F0F80180818535C1F48AEA8083D5
:1009B0002AEAAE014F5F5F4F6FE070E080E090E0A9
:1009C0000E941404803109F4FFCF813019F4F7013B
:1009D000808105C08981833611F0FFCFFFCF0F9052
:1009E000DF91CF911F910F91FF90EF90DF90CF900B
:1009F0000895249A259A269A3F9A229A3D9A81111F
:100A000002C02C9803C0813021F42C9A2D982E9886
:100A10001BC0823011F42C9803C0833019F42C9A37
:100A20002D9AF5CF843011F42C9803C0853019F439
:100A30002C9A2D9808C0863011F42C9803C087306A
:100A4000B9F42C9A2D9A2E9A611102C0479803C0CE
:100A5000613081F4479A411104C02A9A2A982A9A4F
:100A600005C0413049F4459A4598459A80E008957B
:100A700081E0089582E0089584E008958F929F9226
:100A8000AF92BF92CF92DF92EF92FF920F931F939C
:100A9000CF93DF931F92CDB7DEB76B017C014A0184
:100AA0005901202F1982AE014F5F5F4F0E9414043D
:100AB000182F84FF0EC001E020E030E04FEFC701A7
:100AC000B6010E942203103111F4F40101C0F501B6
:100AD000808189810F90DF91CF911F910F91FF90BD
:100AE000EF90DF90CF90BF90AF909F908F90089540
:100AF000CF92DF92EF92FF920F931F93CF93DF93EA
:100B0000EC016B017A01022F9B0160E070E0CB01E8
:100B10000E943E0588839601A70161E070E080E0B5
:100B200090E00E943E0589839601A70162E070E093
:100B300080E090E00E943E058A839601A70163E071
:100B400070E080E090E00E943E058B839601A70153
:100B500064E070E080E090E00E943E058C839601A6
:100B6000A70165E070E080E090E00E943E058D8383
:100B70009601A70166E070E080E090E00E943E05EB
:100B80008E839601A70167E070E080E090E00E940C
:100B90003E058F839601A70168E070E080E090E059
:100BA0000E943E0588879601A70169E070E080E019
:100BB00090E00E943E0589879601A7016AE070E0F7
:100BC00080E090E00E943E058A879601A7016BE0D5
:100BD00070E080E090E00E943E058B879601A701BF
:100BE0006CE070E080E090E00E943E058C8796010A
:100BF000A7016DE070E080E090E00E943E058D87E7
:100C00009601A7016EE070E080E090E00E943E0552
:100C10008E879601A7016FE070E080E090E00E946F
:100C20003E058F87DF91CF911F910F91FF90EF903D
:100C3000DF90CF900895CF92DF92EF92FF920F93C3
:100C40001F93CF93DF93CDB7DEB7C054D1090FB652
:100C5000F894DEBF0FBECDBFFC01008191811281EF
:100C6000502F590F7381510F570F7F0184E0E80E09
:100C7000F11C9E012F5F3F4F69018C2D821B801755
:100C800040F4D7018D917D01D6018D936D01580FF0
:100C9000F4CFE00FF11D8481850FB1F4711113C001
:100CA000862F692F70E0762F6627610F711D8535BD
:100CB00021F4413041F47E5F01C07E5780E090E036
:100CC00040E00E94220350E0852FC05CDF4F0FB64A
:100CD000F894DEBF0FBECDBFDF91CF911F910F9172
:100CE000FF90EF90DF90CF900895680F791F8617DF
:100CF000970721F0FC014193CF01F9CF0895CF93DD
:100D0000DF9300D000D0CDB7DEB719821A821B82E4
:100D10001C8269837A838B839C8389819A81AB81CE
:100D2000BC810397A105B10560F089819A81AB81EF
:100D3000BC810197A109B10989839A83AB83BC83E4
:100D4000ECCF0F900F900F900F90DF91CF910895FF
:100D50000C940070089585B7982F916095BF8D7F92
:100D600085BF0C94000008958A3A09F4FFCF399AA0
:100D7000419A65EE70E080E090E00E947F06419825
:100D80000895BF92CF92DF92EF92FF920F931F933D
:100D9000CF93DF938C017C01C0E0C12CD12C85ED79
:100DA000B82EF801828190E00496C816D906B0F4F6
:100DB000F701D1917F01C114D10419F485E50E9496
:100DC000B40688E09C2F9D27CC0F97FDCB25DD0F27
:100DD0008150C1F7FFEFCF1ADF0AE3CF8C2FDF91ED
:100DE000CF911F910F91FF90EF90DF90CF90BF9028
:100DF0000895EF92FF920F93CF93DF93EC016883F6
:100E000049832A830B839E2DDE011496F7018E2FD2
:100E1000891B821718F481918D93F9CFCE010E941E
:100E2000C106CD5FDE4F888380E0DF91CF910F91C7
:100E3000FF90EF900895DF92EF92FF920F931F9330
:100E4000CF93DF937C01C0E000E010E085EDD82E69
:100E50000E151F05B1F0F801C895D02DC80193708B
:100E6000892B19F485E50E94B40688E09C2F9D2704
:100E7000CC0F97FDCD25DD0F8150C1F70F5F1F4FC0
:100E8000E7CF8C2FDF91CF911F910F91FF90EF90C3
:100E9000DF900895BF92CF92DF92EF92FF920F936F
:100EA0001F93CF93DF931F92CDB7DEB7082F198220
:100EB00010E0C12CD12C760185EDB82E202FAE018B
:100EC0004F5F5F4FC701B6017E578F4F9F4F0E9404
:100ED0001404898120E030E0982F9127110F97FDAD
:100EE0001B25880F2F5F3F4F28303105A9F78983D5
:100EF000D701C6018F779927AA27BB27892B8A2B71
:100F00008B2B41F4C114D104E104F10419F085E5FF
:100F10000E94B4068FEFC81AD80AE80AF80AC1146A
:100F200080E2D806E104F10449F6812F0F90DF91A9
:100F3000CF911F910F91FF90EF90DF90CF90BF90D6
:100F40000895FFCFFFCFCF93DF93CDB7DEB7C6585D
:100F5000D1090FB6F894DEBF0FBECDBF85E5CA57E5
:100F6000DF4F8883C658D040CB57DF4F1882C55813
:100F7000D040CC57DF4F1882C458D040CD57DF4FF8
:100F80001882C358D040CE57DF4F1882C258D04085
:100F90000E948F000E94F2010E94CB010E94A302D6
:100FA00081E00E94390240E050E060E080E00E9471
:100FB000200246E851EE60E081E00E94200285E5D3
:100FC0000E94B40640E061E084E00E94F90469EC0C
:100FD00071E080E090E00E947F068E010A571F4F6B
:100FE0009E012E573F4FAE014C575F4FBE016B57CE
:100FF0007F4F85E50E948104CA57DF4F2881C6587C
:10100000D040AE014E575F4FBE016D577F4F8BE30F
:1010100091E00E94780580E090EE0E941B07182F57
:1010200080913B018535A1F001E020E030E045E50D
:1010300060E070E0CB010E94220320E030E040E05D
:1010400066E070E080E090E00E942203109241018F
:1010500080914701853269F001E020E030E045E20F
:101060006CE070E080E090E00E94220385E28093D3
:101070004701809148018093370180E1EBE3F1E083
:10108000ABE4B3E001900D928A95E1F7F090440152
:1010900001E020E030E040E069E070E080E090E0D6
:1010A0000E942203FF20D9F010935B038091360148
:1010B000813011F481E301C08CE380935C038BE405
:1010C000E82E83E0F82E00E022E143E462E189E4C7
:1010D00095E00E94F90689E495E00E946F020E9463
:1010E000870046E851EE65E081E00E942002C12CB5
:1010F00005EDB02EDD24DA9485E50E94B4068091DA
:1011000052078F3F09F06CC310925207809150062E
:10111000E82FEF77182F1078880F880B8093440101
:101120008E2F90E08131910508F040C3FC01E25C14
:10113000FF4F0C945A0C0E946E00112351F001E0F5
:1011400020E030E04FEF69E070E080E090E00E9446
:1011500022038AEA0E94B40643C30E946E00112350
:1011600009F43EC3E12CF12C01E020E02FC30E94E2
:101170006E0080913E0180934B03809148018093E3
:101180004C038091490180934D03809137018093F6
:101190004E03112309F424C31BE4E12E13E0F12EC6
:1011A00002E024E013C30E946E00809151068093F8
:1011B0004B0390913E0190934C03853511F580933C
:1011C0003E0101E020E030E045E563E070E080E0D2
:1011D00090E00E942203CA57DF4F0881C658D040D2
:1011E0009E012C573F4FAE014E575F4F63E070E0BA
:1011F00080E090E00E943E0580934D030E946E00C7
:1012000002C0D0924D03112309F4EAC2BBE4EB2ED5
:10121000B3E0FB2E03E0D9C20E946E00809151061C
:1012200090913E0180934B0390934C038A3A11F5C1
:1012300080933E0101E020E030E04AEA63E070E0A4
:1012400080E090E00E942203CA57DF4F0881C65811
:10125000D0409E012C573F4FAE014E575F4F63E089
:1012600070E080E090E00E943E0580934D030E9474
:101270006E0002C0D0924D03112309F4B1C2ABE459
:10128000EA2EA3E0FA2E04E0A0C20E946E0080E1E4
:10129000EBE3F1E0ABE4B3E001900D928A95E1F766
:1012A000112309F49DC2FBE4EF2EF3E0FF2E05E0CD
:1012B00020E18CC20E946E008091510690E0A0E077
:1012C000B0E0782F66275527442790915206892F42
:1012D00090E0A0E0B0E0DC0199278827840F951FFB
:1012E000A61FB71F20915406820F911DA11DB11D8D
:1012F0004091530650E060E070E0762F652F542F48
:1013000044272C013D01440E551E661E771E709227
:101310004B0360924C0350924D0340924E03C30125
:10132000B2019F7777FC03C0FB0180810DC0CA57D3
:10133000DF4F0881C658D0409E012C573F4FAE0169
:101340004E575F4F0E943E0580934F03112309F4CF
:1013500047C28BE4E82E83E0F82E06E025E036C293
:101360000E946E008091510690E0A0E0B0E0782FDE
:1013700066275527442790915206892F90E0A0E0D8
:10138000B0E0DC0199278827840F951FA61FB71F9F
:1013900020915406820F911DA11DB11D409153064D
:1013A00050E060E070E0762F652F542F4427840FC3
:1013B000951FA61FB71FF0905506B0934B03A0933F
:1013C0004C0390934D0380934E03F0924F032C01F6
:1013D0003D01E89477F8B7FD08C0F2018081809361
:1013E0005003F082F09251032AC0CA57DF4F0881A0
:1013F000C658D0409E012C573F4FAE014E575F4F0D
:10140000C301B2010E943E058093500301E020E039
:1014100030E04F2DC301B2010E942203CA57DF4FB3
:101420000881C658D0409E012C573F4FAE014E5701
:101430005F4FC301B2010E943E0580935103112307
:1014400009F4CEC17BE4E72E73E0F72E07E027E036
:10145000BDC10E946E0001E020E030E040915106E5
:101460006DE070E080E090E00E94220320E030E038
:10147000409152066EE070E080E090E00E9422030E
:10148000CA57DF4F0881C658D0409E012C573F4FA6
:10149000AE014E575F4F6DE070E080E090E00E943B
:1014A0003E0580934B03CA57DF4F0881C658D04092
:1014B0009E012C573F4FAE014E575F4F6EE070E0DC
:1014C00080E090E00E943E0580934C03112309F4D4
:1014D00087C16BE4E62E63E0F62E0AE022E076C1D7
:1014E0000E946E0001E020E030E04FEF62E070E02B
:1014F00080E090E00E942203412C52E8552E612C9E
:10150000712C01E020E030E04FEFC301B2010E94F6
:101510002203D301C2018F719927AA27BB27892BE8
:101520008A2B8B2B29F40E946E0085E50E94B4065D
:101530008FEF481A580A680A780A411492EA590645
:1015400061047104F1F6112309F412C1E12CF12CAC
:101550000CE020E003C10E946E0040914F0650E075
:1015600061E576E0CE0101960E94600C01E020E08A
:1015700030E04AEA61E170E080E090E00E942203FE
:10158000409136016AEACE0101960E941B068093C3
:101590004B03112309F4ECC04BE4E42E43E0F42E9A
:1015A0000DE021E0DBC0CF57DF4F1882C158D0409B
:1015B0000E946E0000E0412C512C3201CA57DF4FCF
:1015C0002881C658D040AE014F575F4FC301B201CA
:1015D0007E578F4F9F4F0E941404011102C0598201
:1015E0004A82E3E0F0E0EC0FFD1FE00FF11DCF5762
:1015F000DF4F8881C158D04080830F5F003191F464
:10160000112379F0CE0101967C010EE022E143E442
:1016100062E189E495E00E94F90689E495E00E9480
:101620006F0200E0D301C2018F779927AA27BB2759
:10163000892B8A2B8B2B41F44114510461047104D2
:1016400019F085E50E94B4069FEF491A590A690A04
:10165000790A411480E258066104710409F0AECFA2
:1016600087C0E090510619820E946E00F12C412C37
:10167000512C3201CA57DF4F2881C658D040AE01E5
:101680004F5F5F4FC301B2017E578F4F9F4F0E9444
:101690001404898198E0282F2F25FF0C27FDFB24B7
:1016A000880F9150C1F78983D301C2018F779927A1
:1016B000AA27BB27892B8A2B8B2B41F44114510479
:1016C0006104710419F085E50E94B4069FEF491A80
:1016D000590A690A790A411480E2580661047104C2
:1016E00049F601E020E030E0FE100BC04F2D60E134
:1016F00070E080E090E00E94220320E030E045E5C9
:1017000001C04AEA61E170E080E090E00E942203BB
:10171000E0924B03F0924C03CA57DF4F2881C65822
:10172000D0404DE453E061E170E080E090E00E9441
:101730001404CA57DF4F2881C658D0404EE453E006
:1017400060E170E080E090E00E941404112381F0D9
:101750003BE4E32E33E0F32E0FE024E043E462E1C8
:1017600089E495E00E94F90689E495E00E946F0201
:101770000E946E0035C00E946E0001E020E030E063
:1017800043E661E070E080E090E00E9422031123D4
:1017900021F020E030E04FEF04C001E020E030E035
:1017A00040E06AE070E080E090E0D1CC0E946E0002
:1017B000D0924B038091500680934C03D0924D03FE
:1017C0002BE4E22E23E0F22E0FE223E043E462E179
:1017D00089E495E00E94F90689E495E00E946F0291
:1017E0009091380180913701891738F410923801AF
:1017F00080913A018F5F80933A0180913A019091F4
:101800003901981711F110923801809339018093B2
:101810003F01909149019093370180934B039BE4E2
:10182000E92E93E0F92E00E221E043E462E189E44D
:1018300095E00E94F90689E495E00E946F0280918C
:101840003A01803210F00E94A806C11055CC809158
:101850003C018C33A9F001E020E030E04CE361E092
:1018600070E080E090E00E942203409140014F5FD1
:1018700020E030E065E070E080E090E00E9422032C
:10188000409141014F5F01E020E030E066E070E010
:1018900080E090E00E942203409142014F5F20E0EF
:1018A00030E067E070E080E090E00E9422038AEA86
:1018B000C82E22CCEE0FFF1F0590F491E02D099465
:1018C000FB01DC0102C001900D9241505040D8F75D
:0618D0000895F894FFCF1B
:1018D60001020304050607080900000000000000D5
:1018E6000A0B0C0D0E0F00000000000000000000A7
:1018F60000000000000000000000000000000000E2
:061906000A0B0C0D0E0F90
:00000001FF
